{
  "_format": "hh-sol-artifact-1",
  "contractName": "NFTCollectible",
  "sourceName": "contracts/NFTCollectible.sol",
  "abi": [
    {
      "inputs": [
        {
          "internalType": "string",
          "name": "baseURI",
          "type": "string"
        }
      ],
      "stateMutability": "nonpayable",
      "type": "constructor"
    },
    {
      "anonymous": false,
      "inputs": [
        {
          "indexed": true,
          "internalType": "address",
          "name": "owner",
          "type": "address"
        },
        {
          "indexed": true,
          "internalType": "address",
          "name": "approved",
          "type": "address"
        },
        {
          "indexed": true,
          "internalType": "uint256",
          "name": "tokenId",
          "type": "uint256"
        }
      ],
      "name": "Approval",
      "type": "event"
    },
    {
      "anonymous": false,
      "inputs": [
        {
          "indexed": true,
          "internalType": "address",
          "name": "owner",
          "type": "address"
        },
        {
          "indexed": true,
          "internalType": "address",
          "name": "operator",
          "type": "address"
        },
        {
          "indexed": false,
          "internalType": "bool",
          "name": "approved",
          "type": "bool"
        }
      ],
      "name": "ApprovalForAll",
      "type": "event"
    },
    {
      "anonymous": false,
      "inputs": [
        {
          "indexed": false,
          "internalType": "uint256",
          "name": "tokenId",
          "type": "uint256"
        }
      ],
      "name": "NewNFTMinted",
      "type": "event"
    },
    {
      "anonymous": false,
      "inputs": [
        {
          "indexed": true,
          "internalType": "address",
          "name": "previousOwner",
          "type": "address"
        },
        {
          "indexed": true,
          "internalType": "address",
          "name": "newOwner",
          "type": "address"
        }
      ],
      "name": "OwnershipTransferred",
      "type": "event"
    },
    {
      "anonymous": false,
      "inputs": [
        {
          "indexed": true,
          "internalType": "address",
          "name": "from",
          "type": "address"
        },
        {
          "indexed": true,
          "internalType": "address",
          "name": "to",
          "type": "address"
        },
        {
          "indexed": true,
          "internalType": "uint256",
          "name": "tokenId",
          "type": "uint256"
        }
      ],
      "name": "Transfer",
      "type": "event"
    },
    {
      "inputs": [],
      "name": "MAX_PER_MINT",
      "outputs": [
        {
          "internalType": "uint256",
          "name": "",
          "type": "uint256"
        }
      ],
      "stateMutability": "view",
      "type": "function"
    },
    {
      "inputs": [],
      "name": "MAX_SUPPLY",
      "outputs": [
        {
          "internalType": "uint256",
          "name": "",
          "type": "uint256"
        }
      ],
      "stateMutability": "view",
      "type": "function"
    },
    {
      "inputs": [],
      "name": "PRICE",
      "outputs": [
        {
          "internalType": "uint256",
          "name": "",
          "type": "uint256"
        }
      ],
      "stateMutability": "view",
      "type": "function"
    },
    {
      "inputs": [
        {
          "internalType": "address",
          "name": "to",
          "type": "address"
        },
        {
          "internalType": "uint256",
          "name": "tokenId",
          "type": "uint256"
        }
      ],
      "name": "approve",
      "outputs": [],
      "stateMutability": "nonpayable",
      "type": "function"
    },
    {
      "inputs": [
        {
          "internalType": "address",
          "name": "owner",
          "type": "address"
        }
      ],
      "name": "balanceOf",
      "outputs": [
        {
          "internalType": "uint256",
          "name": "",
          "type": "uint256"
        }
      ],
      "stateMutability": "view",
      "type": "function"
    },
    {
      "inputs": [],
      "name": "baseTokenURI",
      "outputs": [
        {
          "internalType": "string",
          "name": "",
          "type": "string"
        }
      ],
      "stateMutability": "view",
      "type": "function"
    },
    {
      "inputs": [
        {
          "internalType": "uint256",
          "name": "tokenId",
          "type": "uint256"
        }
      ],
      "name": "getApproved",
      "outputs": [
        {
          "internalType": "address",
          "name": "",
          "type": "address"
        }
      ],
      "stateMutability": "view",
      "type": "function"
    },
    {
      "inputs": [
        {
          "internalType": "address",
          "name": "owner",
          "type": "address"
        },
        {
          "internalType": "address",
          "name": "operator",
          "type": "address"
        }
      ],
      "name": "isApprovedForAll",
      "outputs": [
        {
          "internalType": "bool",
          "name": "",
          "type": "bool"
        }
      ],
      "stateMutability": "view",
      "type": "function"
    },
    {
      "inputs": [
        {
          "internalType": "uint256",
          "name": "_count",
          "type": "uint256"
        }
      ],
      "name": "mintNFTs",
      "outputs": [],
      "stateMutability": "payable",
      "type": "function"
    },
    {
      "inputs": [],
      "name": "name",
      "outputs": [
        {
          "internalType": "string",
          "name": "",
          "type": "string"
        }
      ],
      "stateMutability": "view",
      "type": "function"
    },
    {
      "inputs": [],
      "name": "owner",
      "outputs": [
        {
          "internalType": "address",
          "name": "",
          "type": "address"
        }
      ],
      "stateMutability": "view",
      "type": "function"
    },
    {
      "inputs": [
        {
          "internalType": "uint256",
          "name": "tokenId",
          "type": "uint256"
        }
      ],
      "name": "ownerOf",
      "outputs": [
        {
          "internalType": "address",
          "name": "",
          "type": "address"
        }
      ],
      "stateMutability": "view",
      "type": "function"
    },
    {
      "inputs": [],
      "name": "renounceOwnership",
      "outputs": [],
      "stateMutability": "nonpayable",
      "type": "function"
    },
    {
      "inputs": [],
      "name": "reserveNFTs",
      "outputs": [],
      "stateMutability": "nonpayable",
      "type": "function"
    },
    {
      "inputs": [
        {
          "internalType": "address",
          "name": "from",
          "type": "address"
        },
        {
          "internalType": "address",
          "name": "to",
          "type": "address"
        },
        {
          "internalType": "uint256",
          "name": "tokenId",
          "type": "uint256"
        }
      ],
      "name": "safeTransferFrom",
      "outputs": [],
      "stateMutability": "nonpayable",
      "type": "function"
    },
    {
      "inputs": [
        {
          "internalType": "address",
          "name": "from",
          "type": "address"
        },
        {
          "internalType": "address",
          "name": "to",
          "type": "address"
        },
        {
          "internalType": "uint256",
          "name": "tokenId",
          "type": "uint256"
        },
        {
          "internalType": "bytes",
          "name": "_data",
          "type": "bytes"
        }
      ],
      "name": "safeTransferFrom",
      "outputs": [],
      "stateMutability": "nonpayable",
      "type": "function"
    },
    {
      "inputs": [
        {
          "internalType": "address",
          "name": "operator",
          "type": "address"
        },
        {
          "internalType": "bool",
          "name": "approved",
          "type": "bool"
        }
      ],
      "name": "setApprovalForAll",
      "outputs": [],
      "stateMutability": "nonpayable",
      "type": "function"
    },
    {
      "inputs": [
        {
          "internalType": "string",
          "name": "_baseTokenURI",
          "type": "string"
        }
      ],
      "name": "setBaseURI",
      "outputs": [],
      "stateMutability": "nonpayable",
      "type": "function"
    },
    {
      "inputs": [
        {
          "internalType": "bytes4",
          "name": "interfaceId",
          "type": "bytes4"
        }
      ],
      "name": "supportsInterface",
      "outputs": [
        {
          "internalType": "bool",
          "name": "",
          "type": "bool"
        }
      ],
      "stateMutability": "view",
      "type": "function"
    },
    {
      "inputs": [],
      "name": "symbol",
      "outputs": [
        {
          "internalType": "string",
          "name": "",
          "type": "string"
        }
      ],
      "stateMutability": "view",
      "type": "function"
    },
    {
      "inputs": [
        {
          "internalType": "uint256",
          "name": "index",
          "type": "uint256"
        }
      ],
      "name": "tokenByIndex",
      "outputs": [
        {
          "internalType": "uint256",
          "name": "",
          "type": "uint256"
        }
      ],
      "stateMutability": "view",
      "type": "function"
    },
    {
      "inputs": [
        {
          "internalType": "address",
          "name": "owner",
          "type": "address"
        },
        {
          "internalType": "uint256",
          "name": "index",
          "type": "uint256"
        }
      ],
      "name": "tokenOfOwnerByIndex",
      "outputs": [
        {
          "internalType": "uint256",
          "name": "",
          "type": "uint256"
        }
      ],
      "stateMutability": "view",
      "type": "function"
    },
    {
      "inputs": [
        {
          "internalType": "uint256",
          "name": "tokenId",
          "type": "uint256"
        }
      ],
      "name": "tokenURI",
      "outputs": [
        {
          "internalType": "string",
          "name": "",
          "type": "string"
        }
      ],
      "stateMutability": "view",
      "type": "function"
    },
    {
      "inputs": [
        {
          "internalType": "address",
          "name": "_owner",
          "type": "address"
        }
      ],
      "name": "tokensOfOwner",
      "outputs": [
        {
          "internalType": "uint256[]",
          "name": "",
          "type": "uint256[]"
        }
      ],
      "stateMutability": "view",
      "type": "function"
    },
    {
      "inputs": [],
      "name": "totalSupply",
      "outputs": [
        {
          "internalType": "uint256",
          "name": "",
          "type": "uint256"
        }
      ],
      "stateMutability": "view",
      "type": "function"
    },
    {
      "inputs": [
        {
          "internalType": "address",
          "name": "from",
          "type": "address"
        },
        {
          "internalType": "address",
          "name": "to",
          "type": "address"
        },
        {
          "internalType": "uint256",
          "name": "tokenId",
          "type": "uint256"
        }
      ],
      "name": "transferFrom",
      "outputs": [],
      "stateMutability": "nonpayable",
      "type": "function"
    },
    {
      "inputs": [
        {
          "internalType": "address",
          "name": "newOwner",
          "type": "address"
        }
      ],
      "name": "transferOwnership",
      "outputs": [],
      "stateMutability": "nonpayable",
      "type": "function"
    },
    {
      "inputs": [],
      "name": "withdraw",
      "outputs": [],
      "stateMutability": "payable",
      "type": "function"
    }
  ],
  "bytecode": "0x60806040523480156200001157600080fd5b50604051620049f8380380620049f88339818101604052810190620000379190620003d4565b6040518060400160405280600f81526020017f4e465420436f6c6c65637469626c6500000000000000000000000000000000008152506040518060400160405280600481526020017f4e465443000000000000000000000000000000000000000000000000000000008152508160009080519060200190620000bb929190620002b2565b508060019080519060200190620000d4929190620002b2565b505050620000f7620000eb6200010f60201b60201c565b6200011760201b60201c565b6200010881620001dd60201b60201c565b506200060c565b600033905090565b6000600a60009054906101000a900473ffffffffffffffffffffffffffffffffffffffff16905081600a60006101000a81548173ffffffffffffffffffffffffffffffffffffffff021916908373ffffffffffffffffffffffffffffffffffffffff1602179055508173ffffffffffffffffffffffffffffffffffffffff168173ffffffffffffffffffffffffffffffffffffffff167f8be0079c531659141344cd1fd0a4f28419497f9722a3daafe3b4186f6b6457e060405160405180910390a35050565b620001ed6200010f60201b60201c565b73ffffffffffffffffffffffffffffffffffffffff16620002136200028860201b60201c565b73ffffffffffffffffffffffffffffffffffffffff16146200026c576040517f08c379a0000000000000000000000000000000000000000000000000000000008152600401620002639062000440565b60405180910390fd5b80600c908051906020019062000284929190620002b2565b5050565b6000600a60009054906101000a900473ffffffffffffffffffffffffffffffffffffffff16905090565b828054620002c09062000508565b90600052602060002090601f016020900481019282620002e4576000855562000330565b82601f10620002ff57805160ff191683800117855562000330565b8280016001018555821562000330579182015b828111156200032f57825182559160200191906001019062000312565b5b5090506200033f919062000343565b5090565b5b808211156200035e57600081600090555060010162000344565b5090565b60006200037962000373846200048b565b62000462565b9050828152602081018484840111156200039257600080fd5b6200039f848285620004d2565b509392505050565b600082601f830112620003b957600080fd5b8151620003cb84826020860162000362565b91505092915050565b600060208284031215620003e757600080fd5b600082015167ffffffffffffffff8111156200040257600080fd5b6200041084828501620003a7565b91505092915050565b600062000428602083620004c1565b91506200043582620005e3565b602082019050919050565b600060208201905081810360008301526200045b8162000419565b9050919050565b60006200046e62000481565b90506200047c82826200053e565b919050565b6000604051905090565b600067ffffffffffffffff821115620004a957620004a8620005a3565b5b620004b482620005d2565b9050602081019050919050565b600082825260208201905092915050565b60005b83811015620004f2578082015181840152602081019050620004d5565b8381111562000502576000848401525b50505050565b600060028204905060018216806200052157607f821691505b6020821081141562000538576200053762000574565b5b50919050565b6200054982620005d2565b810181811067ffffffffffffffff821117156200056b576200056a620005a3565b5b80604052505050565b7f4e487b7100000000000000000000000000000000000000000000000000000000600052602260045260246000fd5b7f4e487b7100000000000000000000000000000000000000000000000000000000600052604160045260246000fd5b6000601f19601f8301169050919050565b7f4f776e61626c653a2063616c6c6572206973206e6f7420746865206f776e6572600082015250565b6143dc806200061c6000396000f3fe6080604052600436106101b75760003560e01c806355f804b3116100ec57806395d89b411161008a578063c87b56dd11610064578063c87b56dd146105de578063d547cfb71461061b578063e985e9c514610646578063f2fde38b14610683576101b7565b806395d89b4114610561578063a22cb4651461058c578063b88d4fde146105b5576101b7565b8063715018a6116100c6578063715018a6146104b75780638462151c146104ce5780638d859f3e1461050b5780638da5cb5b14610536576101b7565b806355f804b3146104145780636352211e1461043d57806370a082311461047a576101b7565b806323b872dd116101595780633b4b1381116101335780633b4b1381146103885780633ccfd60b146103a457806342842e0e146103ae5780634f6ccce7146103d7576101b7565b806323b872dd146102f75780632f745c591461032057806332cb6b0c1461035d576101b7565b8063095ea7b311610195578063095ea7b31461026157806309d42b301461028a578063144100c7146102b557806318160ddd146102cc576101b7565b806301ffc9a7146101bc57806306fdde03146101f9578063081812fc14610224575b600080fd5b3480156101c857600080fd5b506101e360048036038101906101de9190612ec6565b6106ac565b6040516101f09190613504565b60405180910390f35b34801561020557600080fd5b5061020e610726565b60405161021b919061351f565b60405180910390f35b34801561023057600080fd5b5061024b60048036038101906102469190612f59565b6107b8565b604051610258919061347b565b60405180910390f35b34801561026d57600080fd5b5061028860048036038101906102839190612e8a565b61083d565b005b34801561029657600080fd5b5061029f610955565b6040516102ac9190613871565b60405180910390f35b3480156102c157600080fd5b506102ca61095a565b005b3480156102d857600080fd5b506102e1610a65565b6040516102ee9190613871565b60405180910390f35b34801561030357600080fd5b5061031e60048036038101906103199190612d84565b610a72565b005b34801561032c57600080fd5b5061034760048036038101906103429190612e8a565b610ad2565b6040516103549190613871565b60405180910390f35b34801561036957600080fd5b50610372610b77565b60405161037f9190613871565b60405180910390f35b6103a2600480360381019061039d9190612f59565b610b7c565b005b6103ac610d2d565b005b3480156103ba57600080fd5b506103d560048036038101906103d09190612d84565b610ea1565b005b3480156103e357600080fd5b506103fe60048036038101906103f99190612f59565b610ec1565b60405161040b9190613871565b60405180910390f35b34801561042057600080fd5b5061043b60048036038101906104369190612f18565b610f58565b005b34801561044957600080fd5b50610464600480360381019061045f9190612f59565b610fee565b604051610471919061347b565b60405180910390f35b34801561048657600080fd5b506104a1600480360381019061049c9190612d1f565b6110a0565b6040516104ae9190613871565b60405180910390f35b3480156104c357600080fd5b506104cc611158565b005b3480156104da57600080fd5b506104f560048036038101906104f09190612d1f565b6111e0565b60405161050291906134e2565b60405180910390f35b34801561051757600080fd5b506105206112da565b60405161052d9190613871565b60405180910390f35b34801561054257600080fd5b5061054b6112e5565b604051610558919061347b565b60405180910390f35b34801561056d57600080fd5b5061057661130f565b604051610583919061351f565b60405180910390f35b34801561059857600080fd5b506105b360048036038101906105ae9190612e4e565b6113a1565b005b3480156105c157600080fd5b506105dc60048036038101906105d79190612dd3565b6113b7565b005b3480156105ea57600080fd5b5061060560048036038101906106009190612f59565b611419565b604051610612919061351f565b60405180910390f35b34801561062757600080fd5b506106306114c0565b60405161063d919061351f565b60405180910390f35b34801561065257600080fd5b5061066d60048036038101906106689190612d48565b61154e565b60405161067a9190613504565b60405180910390f35b34801561068f57600080fd5b506106aa60048036038101906106a59190612d1f565b6115e2565b005b60007f780e9d63000000000000000000000000000000000000000000000000000000007bffffffffffffffffffffffffffffffffffffffffffffffffffffffff1916827bffffffffffffffffffffffffffffffffffffffffffffffffffffffff1916148061071f575061071e826116da565b5b9050919050565b60606000805461073590613b65565b80601f016020809104026020016040519081016040528092919081815260200182805461076190613b65565b80156107ae5780601f10610783576101008083540402835291602001916107ae565b820191906000526020600020905b81548152906001019060200180831161079157829003601f168201915b5050505050905090565b60006107c3826117bc565b610802576040517f08c379a00000000000000000000000000000000000000000000000000000000081526004016107f9906137b1565b60405180910390fd5b6004600083815260200190815260200160002060009054906101000a900473ffffffffffffffffffffffffffffffffffffffff169050919050565b600061084882610fee565b90508073ffffffffffffffffffffffffffffffffffffffff168373ffffffffffffffffffffffffffffffffffffffff1614156108b9576040517f08c379a00000000000000000000000000000000000000000000000000000000081526004016108b090613811565b60405180910390fd5b8073ffffffffffffffffffffffffffffffffffffffff166108d8611828565b73ffffffffffffffffffffffffffffffffffffffff161480610907575061090681610901611828565b61154e565b5b610946576040517f08c379a000000000000000000000000000000000000000000000000000000000815260040161093d906136f1565b60405180910390fd5b6109508383611830565b505050565b600381565b610962611828565b73ffffffffffffffffffffffffffffffffffffffff166109806112e5565b73ffffffffffffffffffffffffffffffffffffffff16146109d6576040517f08c379a00000000000000000000000000000000000000000000000000000000081526004016109cd906137d1565b60405180910390fd5b60006109e2600b6118e9565b9050601e6109fa600a836118f790919063ffffffff16565b10610a3a576040517f08c379a0000000000000000000000000000000000000000000000000000000008152600401610a3190613751565b60405180910390fd5b60005b600a811015610a6157610a4e61190d565b8080610a5990613bc8565b915050610a3d565b5050565b6000600880549050905090565b610a83610a7d611828565b82611932565b610ac2576040517f08c379a0000000000000000000000000000000000000000000000000000000008152600401610ab990613831565b60405180910390fd5b610acd838383611a10565b505050565b6000610add836110a0565b8210610b1e576040517f08c379a0000000000000000000000000000000000000000000000000000000008152600401610b1590613571565b60405180910390fd5b600660008473ffffffffffffffffffffffffffffffffffffffff1673ffffffffffffffffffffffffffffffffffffffff168152602001908152602001600020600083815260200190815260200160002054905092915050565b601e81565b6000610b88600b6118e9565b9050601e610b9f83836118f790919063ffffffff16565b1115610be0576040517f08c379a0000000000000000000000000000000000000000000000000000000008152600401610bd790613691565b60405180910390fd5b600082118015610bf1575060038211155b610c30576040517f08c379a0000000000000000000000000000000000000000000000000000000008152600401610c27906136b1565b60405180910390fd5b610c4a82662386f26fc10000611c7790919063ffffffff16565b341015610c8c576040517f08c379a0000000000000000000000000000000000000000000000000000000008152600401610c8390613671565b60405180910390fd5b60005b82811015610cb257610c9f61190d565b8080610caa90613bc8565b915050610c8f565b507f4bd58340e5b8efa407359de360467044ef99e1264429ee722ea6b40e3b18cbea81604051610ce29190613871565b60405180910390a1610d296040518060400160405280600881526020017f746f6b656e49643a00000000000000000000000000000000000000000000000081525082611c8d565b5050565b610d35611828565b73ffffffffffffffffffffffffffffffffffffffff16610d536112e5565b73ffffffffffffffffffffffffffffffffffffffff1614610da9576040517f08c379a0000000000000000000000000000000000000000000000000000000008152600401610da0906137d1565b60405180910390fd5b600047905060008111610df1576040517f08c379a0000000000000000000000000000000000000000000000000000000008152600401610de890613791565b60405180910390fd5b60003373ffffffffffffffffffffffffffffffffffffffff1682604051610e1790613466565b60006040518083038185875af1925050503d8060008114610e54576040519150601f19603f3d011682016040523d82523d6000602084013e610e59565b606091505b5050905080610e9d576040517f08c379a0000000000000000000000000000000000000000000000000000000008152600401610e94906135d1565b60405180910390fd5b5050565b610ebc838383604051806020016040528060008152506113b7565b505050565b6000610ecb610a65565b8210610f0c576040517f08c379a0000000000000000000000000000000000000000000000000000000008152600401610f0390613851565b60405180910390fd5b60088281548110610f46577f4e487b7100000000000000000000000000000000000000000000000000000000600052603260045260246000fd5b90600052602060002001549050919050565b610f60611828565b73ffffffffffffffffffffffffffffffffffffffff16610f7e6112e5565b73ffffffffffffffffffffffffffffffffffffffff1614610fd4576040517f08c379a0000000000000000000000000000000000000000000000000000000008152600401610fcb906137d1565b60405180910390fd5b80600c9080519060200190610fea929190612b43565b5050565b6000806002600084815260200190815260200160002060009054906101000a900473ffffffffffffffffffffffffffffffffffffffff169050600073ffffffffffffffffffffffffffffffffffffffff168173ffffffffffffffffffffffffffffffffffffffff161415611097576040517f08c379a000000000000000000000000000000000000000000000000000000000815260040161108e90613731565b60405180910390fd5b80915050919050565b60008073ffffffffffffffffffffffffffffffffffffffff168273ffffffffffffffffffffffffffffffffffffffff161415611111576040517f08c379a000000000000000000000000000000000000000000000000000000000815260040161110890613711565b60405180910390fd5b600360008373ffffffffffffffffffffffffffffffffffffffff1673ffffffffffffffffffffffffffffffffffffffff168152602001908152602001600020549050919050565b611160611828565b73ffffffffffffffffffffffffffffffffffffffff1661117e6112e5565b73ffffffffffffffffffffffffffffffffffffffff16146111d4576040517f08c379a00000000000000000000000000000000000000000000000000000000081526004016111cb906137d1565b60405180910390fd5b6111de6000611d29565b565b606060006111ed836110a0565b905060008167ffffffffffffffff811115611231577f4e487b7100000000000000000000000000000000000000000000000000000000600052604160045260246000fd5b60405190808252806020026020018201604052801561125f5781602001602082028036833780820191505090505b50905060005b828110156112cf576112778582610ad2565b8282815181106112b0577f4e487b7100000000000000000000000000000000000000000000000000000000600052603260045260246000fd5b60200260200101818152505080806112c790613bc8565b915050611265565b508092505050919050565b662386f26fc1000081565b6000600a60009054906101000a900473ffffffffffffffffffffffffffffffffffffffff16905090565b60606001805461131e90613b65565b80601f016020809104026020016040519081016040528092919081815260200182805461134a90613b65565b80156113975780601f1061136c57610100808354040283529160200191611397565b820191906000526020600020905b81548152906001019060200180831161137a57829003601f168201915b5050505050905090565b6113b36113ac611828565b8383611def565b5050565b6113c86113c2611828565b83611932565b611407576040517f08c379a00000000000000000000000000000000000000000000000000000000081526004016113fe90613831565b60405180910390fd5b61141384848484611f5c565b50505050565b6060611424826117bc565b611463576040517f08c379a000000000000000000000000000000000000000000000000000000000815260040161145a906137f1565b60405180910390fd5b600061146d611fb8565b9050600081511161148d57604051806020016040528060008152506114b8565b806114978461204a565b6040516020016114a8929190613442565b6040516020818303038152906040525b915050919050565b600c80546114cd90613b65565b80601f01602080910402602001604051908101604052809291908181526020018280546114f990613b65565b80156115465780601f1061151b57610100808354040283529160200191611546565b820191906000526020600020905b81548152906001019060200180831161152957829003601f168201915b505050505081565b6000600560008473ffffffffffffffffffffffffffffffffffffffff1673ffffffffffffffffffffffffffffffffffffffff16815260200190815260200160002060008373ffffffffffffffffffffffffffffffffffffffff1673ffffffffffffffffffffffffffffffffffffffff16815260200190815260200160002060009054906101000a900460ff16905092915050565b6115ea611828565b73ffffffffffffffffffffffffffffffffffffffff166116086112e5565b73ffffffffffffffffffffffffffffffffffffffff161461165e576040517f08c379a0000000000000000000000000000000000000000000000000000000008152600401611655906137d1565b60405180910390fd5b600073ffffffffffffffffffffffffffffffffffffffff168173ffffffffffffffffffffffffffffffffffffffff1614156116ce576040517f08c379a00000000000000000000000000000000000000000000000000000000081526004016116c5906135b1565b60405180910390fd5b6116d781611d29565b50565b60007f80ac58cd000000000000000000000000000000000000000000000000000000007bffffffffffffffffffffffffffffffffffffffffffffffffffffffff1916827bffffffffffffffffffffffffffffffffffffffffffffffffffffffff191614806117a557507f5b5e139f000000000000000000000000000000000000000000000000000000007bffffffffffffffffffffffffffffffffffffffffffffffffffffffff1916827bffffffffffffffffffffffffffffffffffffffffffffffffffffffff1916145b806117b557506117b4826121f7565b5b9050919050565b60008073ffffffffffffffffffffffffffffffffffffffff166002600084815260200190815260200160002060009054906101000a900473ffffffffffffffffffffffffffffffffffffffff1673ffffffffffffffffffffffffffffffffffffffff1614159050919050565b600033905090565b816004600083815260200190815260200160002060006101000a81548173ffffffffffffffffffffffffffffffffffffffff021916908373ffffffffffffffffffffffffffffffffffffffff160217905550808273ffffffffffffffffffffffffffffffffffffffff166118a383610fee565b73ffffffffffffffffffffffffffffffffffffffff167f8c5be1e5ebec7d5bd14f71427d1e84f3dd0314c0f7b2291e5b200ac8c7c3b92560405160405180910390a45050565b600081600001549050919050565b60008183611905919061399a565b905092915050565b6000611919600b6118e9565b90506119253382612261565b61192f600b61227f565b50565b600061193d826117bc565b61197c576040517f08c379a0000000000000000000000000000000000000000000000000000000008152600401611973906136d1565b60405180910390fd5b600061198783610fee565b90508073ffffffffffffffffffffffffffffffffffffffff168473ffffffffffffffffffffffffffffffffffffffff1614806119f657508373ffffffffffffffffffffffffffffffffffffffff166119de846107b8565b73ffffffffffffffffffffffffffffffffffffffff16145b80611a075750611a06818561154e565b5b91505092915050565b8273ffffffffffffffffffffffffffffffffffffffff16611a3082610fee565b73ffffffffffffffffffffffffffffffffffffffff1614611a86576040517f08c379a0000000000000000000000000000000000000000000000000000000008152600401611a7d906135f1565b60405180910390fd5b600073ffffffffffffffffffffffffffffffffffffffff168273ffffffffffffffffffffffffffffffffffffffff161415611af6576040517f08c379a0000000000000000000000000000000000000000000000000000000008152600401611aed90613631565b60405180910390fd5b611b01838383612295565b611b0c600082611830565b6001600360008573ffffffffffffffffffffffffffffffffffffffff1673ffffffffffffffffffffffffffffffffffffffff1681526020019081526020016000206000828254611b5c9190613a7b565b925050819055506001600360008473ffffffffffffffffffffffffffffffffffffffff1673ffffffffffffffffffffffffffffffffffffffff1681526020019081526020016000206000828254611bb3919061399a565b92505081905550816002600083815260200190815260200160002060006101000a81548173ffffffffffffffffffffffffffffffffffffffff021916908373ffffffffffffffffffffffffffffffffffffffff160217905550808273ffffffffffffffffffffffffffffffffffffffff168473ffffffffffffffffffffffffffffffffffffffff167fddf252ad1be2c89b69c2b068fc378daa952ba7f163c4a11628f55a4df523b3ef60405160405180910390a4611c728383836123a9565b505050565b60008183611c859190613a21565b905092915050565b611d258282604051602401611ca3929190613541565b6040516020818303038152906040527f9710a9d0000000000000000000000000000000000000000000000000000000007bffffffffffffffffffffffffffffffffffffffffffffffffffffffff19166020820180517bffffffffffffffffffffffffffffffffffffffffffffffffffffffff83818316178352505050506123ae565b5050565b6000600a60009054906101000a900473ffffffffffffffffffffffffffffffffffffffff16905081600a60006101000a81548173ffffffffffffffffffffffffffffffffffffffff021916908373ffffffffffffffffffffffffffffffffffffffff1602179055508173ffffffffffffffffffffffffffffffffffffffff168173ffffffffffffffffffffffffffffffffffffffff167f8be0079c531659141344cd1fd0a4f28419497f9722a3daafe3b4186f6b6457e060405160405180910390a35050565b8173ffffffffffffffffffffffffffffffffffffffff168373ffffffffffffffffffffffffffffffffffffffff161415611e5e576040517f08c379a0000000000000000000000000000000000000000000000000000000008152600401611e5590613651565b60405180910390fd5b80600560008573ffffffffffffffffffffffffffffffffffffffff1673ffffffffffffffffffffffffffffffffffffffff16815260200190815260200160002060008473ffffffffffffffffffffffffffffffffffffffff1673ffffffffffffffffffffffffffffffffffffffff16815260200190815260200160002060006101000a81548160ff0219169083151502179055508173ffffffffffffffffffffffffffffffffffffffff168373ffffffffffffffffffffffffffffffffffffffff167f17307eab39ab6107e8899845ad3d59bd9653f200f220920489ca2b5937696c3183604051611f4f9190613504565b60405180910390a3505050565b611f67848484611a10565b611f73848484846123d7565b611fb2576040517f08c379a0000000000000000000000000000000000000000000000000000000008152600401611fa990613591565b60405180910390fd5b50505050565b6060600c8054611fc790613b65565b80601f0160208091040260200160405190810160405280929190818152602001828054611ff390613b65565b80156120405780601f1061201557610100808354040283529160200191612040565b820191906000526020600020905b81548152906001019060200180831161202357829003601f168201915b5050505050905090565b60606000821415612092576040518060400160405280600181526020017f300000000000000000000000000000000000000000000000000000000000000081525090506121f2565b600082905060005b600082146120c45780806120ad90613bc8565b915050600a826120bd91906139f0565b915061209a565b60008167ffffffffffffffff811115612106577f4e487b7100000000000000000000000000000000000000000000000000000000600052604160045260246000fd5b6040519080825280601f01601f1916602001820160405280156121385781602001600182028036833780820191505090505b5090505b600085146121eb576001826121519190613a7b565b9150600a856121609190613c11565b603061216c919061399a565b60f81b8183815181106121a8577f4e487b7100000000000000000000000000000000000000000000000000000000600052603260045260246000fd5b60200101907effffffffffffffffffffffffffffffffffffffffffffffffffffffffffffff1916908160001a905350600a856121e491906139f0565b945061213c565b8093505050505b919050565b60007f01ffc9a7000000000000000000000000000000000000000000000000000000007bffffffffffffffffffffffffffffffffffffffffffffffffffffffff1916827bffffffffffffffffffffffffffffffffffffffffffffffffffffffff1916149050919050565b61227b82826040518060200160405280600081525061256e565b5050565b6001816000016000828254019250508190555050565b6122a08383836125c9565b600073ffffffffffffffffffffffffffffffffffffffff168373ffffffffffffffffffffffffffffffffffffffff1614156122e3576122de816125ce565b612322565b8173ffffffffffffffffffffffffffffffffffffffff168373ffffffffffffffffffffffffffffffffffffffff1614612321576123208382612617565b5b5b600073ffffffffffffffffffffffffffffffffffffffff168273ffffffffffffffffffffffffffffffffffffffff1614156123655761236081612784565b6123a4565b8273ffffffffffffffffffffffffffffffffffffffff168273ffffffffffffffffffffffffffffffffffffffff16146123a3576123a282826128c7565b5b5b505050565b505050565b60008151905060006a636f6e736f6c652e6c6f679050602083016000808483855afa5050505050565b60006123f88473ffffffffffffffffffffffffffffffffffffffff16612946565b15612561578373ffffffffffffffffffffffffffffffffffffffff1663150b7a02612421611828565b8786866040518563ffffffff1660e01b81526004016124439493929190613496565b602060405180830381600087803b15801561245d57600080fd5b505af192505050801561248e57506040513d601f19601f8201168201806040525081019061248b9190612eef565b60015b612511573d80600081146124be576040519150601f19603f3d011682016040523d82523d6000602084013e6124c3565b606091505b50600081511415612509576040517f08c379a000000000000000000000000000000000000000000000000000000000815260040161250090613591565b60405180910390fd5b805181602001fd5b63150b7a0260e01b7bffffffffffffffffffffffffffffffffffffffffffffffffffffffff1916817bffffffffffffffffffffffffffffffffffffffffffffffffffffffff191614915050612566565b600190505b949350505050565b6125788383612969565b61258560008484846123d7565b6125c4576040517f08c379a00000000000000000000000000000000000000000000000000000000081526004016125bb90613591565b60405180910390fd5b505050565b505050565b6008805490506009600083815260200190815260200160002081905550600881908060018154018082558091505060019003906000526020600020016000909190919091505550565b60006001612624846110a0565b61262e9190613a7b565b9050600060076000848152602001908152602001600020549050818114612713576000600660008673ffffffffffffffffffffffffffffffffffffffff1673ffffffffffffffffffffffffffffffffffffffff168152602001908152602001600020600084815260200190815260200160002054905080600660008773ffffffffffffffffffffffffffffffffffffffff1673ffffffffffffffffffffffffffffffffffffffff168152602001908152602001600020600084815260200190815260200160002081905550816007600083815260200190815260200160002081905550505b6007600084815260200190815260200160002060009055600660008573ffffffffffffffffffffffffffffffffffffffff1673ffffffffffffffffffffffffffffffffffffffff16815260200190815260200160002060008381526020019081526020016000206000905550505050565b600060016008805490506127989190613a7b565b90506000600960008481526020019081526020016000205490506000600883815481106127ee577f4e487b7100000000000000000000000000000000000000000000000000000000600052603260045260246000fd5b906000526020600020015490508060088381548110612836577f4e487b7100000000000000000000000000000000000000000000000000000000600052603260045260246000fd5b9060005260206000200181905550816009600083815260200190815260200160002081905550600960008581526020019081526020016000206000905560088054806128ab577f4e487b7100000000000000000000000000000000000000000000000000000000600052603160045260246000fd5b6001900381819060005260206000200160009055905550505050565b60006128d2836110a0565b905081600660008573ffffffffffffffffffffffffffffffffffffffff1673ffffffffffffffffffffffffffffffffffffffff168152602001908152602001600020600083815260200190815260200160002081905550806007600084815260200190815260200160002081905550505050565b6000808273ffffffffffffffffffffffffffffffffffffffff163b119050919050565b600073ffffffffffffffffffffffffffffffffffffffff168273ffffffffffffffffffffffffffffffffffffffff1614156129d9576040517f08c379a00000000000000000000000000000000000000000000000000000000081526004016129d090613771565b60405180910390fd5b6129e2816117bc565b15612a22576040517f08c379a0000000000000000000000000000000000000000000000000000000008152600401612a1990613611565b60405180910390fd5b612a2e60008383612295565b6001600360008473ffffffffffffffffffffffffffffffffffffffff1673ffffffffffffffffffffffffffffffffffffffff1681526020019081526020016000206000828254612a7e919061399a565b92505081905550816002600083815260200190815260200160002060006101000a81548173ffffffffffffffffffffffffffffffffffffffff021916908373ffffffffffffffffffffffffffffffffffffffff160217905550808273ffffffffffffffffffffffffffffffffffffffff16600073ffffffffffffffffffffffffffffffffffffffff167fddf252ad1be2c89b69c2b068fc378daa952ba7f163c4a11628f55a4df523b3ef60405160405180910390a4612b3f600083836123a9565b5050565b828054612b4f90613b65565b90600052602060002090601f016020900481019282612b715760008555612bb8565b82601f10612b8a57805160ff1916838001178555612bb8565b82800160010185558215612bb8579182015b82811115612bb7578251825591602001919060010190612b9c565b5b509050612bc59190612bc9565b5090565b5b80821115612be2576000816000905550600101612bca565b5090565b6000612bf9612bf4846138b1565b61388c565b905082815260208101848484011115612c1157600080fd5b612c1c848285613b23565b509392505050565b6000612c37612c32846138e2565b61388c565b905082815260208101848484011115612c4f57600080fd5b612c5a848285613b23565b509392505050565b600081359050612c718161434a565b92915050565b600081359050612c8681614361565b92915050565b600081359050612c9b81614378565b92915050565b600081519050612cb081614378565b92915050565b600082601f830112612cc757600080fd5b8135612cd7848260208601612be6565b91505092915050565b600082601f830112612cf157600080fd5b8135612d01848260208601612c24565b91505092915050565b600081359050612d198161438f565b92915050565b600060208284031215612d3157600080fd5b6000612d3f84828501612c62565b91505092915050565b60008060408385031215612d5b57600080fd5b6000612d6985828601612c62565b9250506020612d7a85828601612c62565b9150509250929050565b600080600060608486031215612d9957600080fd5b6000612da786828701612c62565b9350506020612db886828701612c62565b9250506040612dc986828701612d0a565b9150509250925092565b60008060008060808587031215612de957600080fd5b6000612df787828801612c62565b9450506020612e0887828801612c62565b9350506040612e1987828801612d0a565b925050606085013567ffffffffffffffff811115612e3657600080fd5b612e4287828801612cb6565b91505092959194509250565b60008060408385031215612e6157600080fd5b6000612e6f85828601612c62565b9250506020612e8085828601612c77565b9150509250929050565b60008060408385031215612e9d57600080fd5b6000612eab85828601612c62565b9250506020612ebc85828601612d0a565b9150509250929050565b600060208284031215612ed857600080fd5b6000612ee684828501612c8c565b91505092915050565b600060208284031215612f0157600080fd5b6000612f0f84828501612ca1565b91505092915050565b600060208284031215612f2a57600080fd5b600082013567ffffffffffffffff811115612f4457600080fd5b612f5084828501612ce0565b91505092915050565b600060208284031215612f6b57600080fd5b6000612f7984828501612d0a565b91505092915050565b6000612f8e8383613424565b60208301905092915050565b612fa381613aaf565b82525050565b6000612fb482613923565b612fbe8185613951565b9350612fc983613913565b8060005b83811015612ffa578151612fe18882612f82565b9750612fec83613944565b925050600181019050612fcd565b5085935050505092915050565b61301081613ac1565b82525050565b60006130218261392e565b61302b8185613962565b935061303b818560208601613b32565b61304481613cfe565b840191505092915050565b600061305a82613939565b613064818561397e565b9350613074818560208601613b32565b61307d81613cfe565b840191505092915050565b600061309382613939565b61309d818561398f565b93506130ad818560208601613b32565b80840191505092915050565b60006130c6602b8361397e565b91506130d182613d0f565b604082019050919050565b60006130e960328361397e565b91506130f482613d5e565b604082019050919050565b600061310c60268361397e565b915061311782613dad565b604082019050919050565b600061312f600f8361397e565b915061313a82613dfc565b602082019050919050565b600061315260258361397e565b915061315d82613e25565b604082019050919050565b6000613175601c8361397e565b915061318082613e74565b602082019050919050565b600061319860248361397e565b91506131a382613e9d565b604082019050919050565b60006131bb60198361397e565b91506131c682613eec565b602082019050919050565b60006131de60228361397e565b91506131e982613f15565b604082019050919050565b600061320160158361397e565b915061320c82613f64565b602082019050919050565b600061322460258361397e565b915061322f82613f8d565b604082019050919050565b6000613247602c8361397e565b915061325282613fdc565b604082019050919050565b600061326a60388361397e565b91506132758261402b565b604082019050919050565b600061328d602a8361397e565b91506132988261407a565b604082019050919050565b60006132b060298361397e565b91506132bb826140c9565b604082019050919050565b60006132d3600f8361397e565b91506132de82614118565b602082019050919050565b60006132f660208361397e565b915061330182614141565b602082019050919050565b600061331960198361397e565b91506133248261416a565b602082019050919050565b600061333c602c8361397e565b915061334782614193565b604082019050919050565b600061335f60208361397e565b915061336a826141e2565b602082019050919050565b6000613382602f8361397e565b915061338d8261420b565b604082019050919050565b60006133a560218361397e565b91506133b08261425a565b604082019050919050565b60006133c8600083613973565b91506133d3826142a9565b600082019050919050565b60006133eb60318361397e565b91506133f6826142ac565b604082019050919050565b600061340e602c8361397e565b9150613419826142fb565b604082019050919050565b61342d81613b19565b82525050565b61343c81613b19565b82525050565b600061344e8285613088565b915061345a8284613088565b91508190509392505050565b6000613471826133bb565b9150819050919050565b60006020820190506134906000830184612f9a565b92915050565b60006080820190506134ab6000830187612f9a565b6134b86020830186612f9a565b6134c56040830185613433565b81810360608301526134d78184613016565b905095945050505050565b600060208201905081810360008301526134fc8184612fa9565b905092915050565b60006020820190506135196000830184613007565b92915050565b60006020820190508181036000830152613539818461304f565b905092915050565b6000604082019050818103600083015261355b818561304f565b905061356a6020830184613433565b9392505050565b6000602082019050818103600083015261358a816130b9565b9050919050565b600060208201905081810360008301526135aa816130dc565b9050919050565b600060208201905081810360008301526135ca816130ff565b9050919050565b600060208201905081810360008301526135ea81613122565b9050919050565b6000602082019050818103600083015261360a81613145565b9050919050565b6000602082019050818103600083015261362a81613168565b9050919050565b6000602082019050818103600083015261364a8161318b565b9050919050565b6000602082019050818103600083015261366a816131ae565b9050919050565b6000602082019050818103600083015261368a816131d1565b9050919050565b600060208201905081810360008301526136aa816131f4565b9050919050565b600060208201905081810360008301526136ca81613217565b9050919050565b600060208201905081810360008301526136ea8161323a565b9050919050565b6000602082019050818103600083015261370a8161325d565b9050919050565b6000602082019050818103600083015261372a81613280565b9050919050565b6000602082019050818103600083015261374a816132a3565b9050919050565b6000602082019050818103600083015261376a816132c6565b9050919050565b6000602082019050818103600083015261378a816132e9565b9050919050565b600060208201905081810360008301526137aa8161330c565b9050919050565b600060208201905081810360008301526137ca8161332f565b9050919050565b600060208201905081810360008301526137ea81613352565b9050919050565b6000602082019050818103600083015261380a81613375565b9050919050565b6000602082019050818103600083015261382a81613398565b9050919050565b6000602082019050818103600083015261384a816133de565b9050919050565b6000602082019050818103600083015261386a81613401565b9050919050565b60006020820190506138866000830184613433565b92915050565b60006138966138a7565b90506138a28282613b97565b919050565b6000604051905090565b600067ffffffffffffffff8211156138cc576138cb613ccf565b5b6138d582613cfe565b9050602081019050919050565b600067ffffffffffffffff8211156138fd576138fc613ccf565b5b61390682613cfe565b9050602081019050919050565b6000819050602082019050919050565b600081519050919050565b600081519050919050565b600081519050919050565b6000602082019050919050565b600082825260208201905092915050565b600082825260208201905092915050565b600081905092915050565b600082825260208201905092915050565b600081905092915050565b60006139a582613b19565b91506139b083613b19565b9250827fffffffffffffffffffffffffffffffffffffffffffffffffffffffffffffffff038211156139e5576139e4613c42565b5b828201905092915050565b60006139fb82613b19565b9150613a0683613b19565b925082613a1657613a15613c71565b5b828204905092915050565b6000613a2c82613b19565b9150613a3783613b19565b9250817fffffffffffffffffffffffffffffffffffffffffffffffffffffffffffffffff0483118215151615613a7057613a6f613c42565b5b828202905092915050565b6000613a8682613b19565b9150613a9183613b19565b925082821015613aa457613aa3613c42565b5b828203905092915050565b6000613aba82613af9565b9050919050565b60008115159050919050565b60007fffffffff0000000000000000000000000000000000000000000000000000000082169050919050565b600073ffffffffffffffffffffffffffffffffffffffff82169050919050565b6000819050919050565b82818337600083830152505050565b60005b83811015613b50578082015181840152602081019050613b35565b83811115613b5f576000848401525b50505050565b60006002820490506001821680613b7d57607f821691505b60208210811415613b9157613b90613ca0565b5b50919050565b613ba082613cfe565b810181811067ffffffffffffffff82111715613bbf57613bbe613ccf565b5b80604052505050565b6000613bd382613b19565b91507fffffffffffffffffffffffffffffffffffffffffffffffffffffffffffffffff821415613c0657613c05613c42565b5b600182019050919050565b6000613c1c82613b19565b9150613c2783613b19565b925082613c3757613c36613c71565b5b828206905092915050565b7f4e487b7100000000000000000000000000000000000000000000000000000000600052601160045260246000fd5b7f4e487b7100000000000000000000000000000000000000000000000000000000600052601260045260246000fd5b7f4e487b7100000000000000000000000000000000000000000000000000000000600052602260045260246000fd5b7f4e487b7100000000000000000000000000000000000000000000000000000000600052604160045260246000fd5b6000601f19601f8301169050919050565b7f455243373231456e756d657261626c653a206f776e657220696e646578206f7560008201527f74206f6620626f756e6473000000000000000000000000000000000000000000602082015250565b7f4552433732313a207472616e7366657220746f206e6f6e20455243373231526560008201527f63656976657220696d706c656d656e7465720000000000000000000000000000602082015250565b7f4f776e61626c653a206e6577206f776e657220697320746865207a65726f206160008201527f6464726573730000000000000000000000000000000000000000000000000000602082015250565b7f5472616e73666572206661696c65640000000000000000000000000000000000600082015250565b7f4552433732313a207472616e736665722066726f6d20696e636f72726563742060008201527f6f776e6572000000000000000000000000000000000000000000000000000000602082015250565b7f4552433732313a20746f6b656e20616c7265616479206d696e74656400000000600082015250565b7f4552433732313a207472616e7366657220746f20746865207a65726f2061646460008201527f7265737300000000000000000000000000000000000000000000000000000000602082015250565b7f4552433732313a20617070726f766520746f2063616c6c657200000000000000600082015250565b7f4e6f7420656e6f75676820657468657220746f207075726368617365204e465460008201527f732e000000000000000000000000000000000000000000000000000000000000602082015250565b7f4e6f7420656e6f756768204e465473206c656674210000000000000000000000600082015250565b7f43616e6e6f74206d696e7420737065636966696564206e756d626572206f662060008201527f4e4654732e000000000000000000000000000000000000000000000000000000602082015250565b7f4552433732313a206f70657261746f7220717565727920666f72206e6f6e657860008201527f697374656e7420746f6b656e0000000000000000000000000000000000000000602082015250565b7f4552433732313a20617070726f76652063616c6c6572206973206e6f74206f7760008201527f6e6572206e6f7220617070726f76656420666f7220616c6c0000000000000000602082015250565b7f4552433732313a2062616c616e636520717565727920666f7220746865207a6560008201527f726f206164647265737300000000000000000000000000000000000000000000602082015250565b7f4552433732313a206f776e657220717565727920666f72206e6f6e657869737460008201527f656e7420746f6b656e0000000000000000000000000000000000000000000000602082015250565b7f4e6f7420656e6f756768204e4654730000000000000000000000000000000000600082015250565b7f4552433732313a206d696e7420746f20746865207a65726f2061646472657373600082015250565b7f4e6f206574686572206c65667420746f20776974686472617700000000000000600082015250565b7f4552433732313a20617070726f76656420717565727920666f72206e6f6e657860008201527f697374656e7420746f6b656e0000000000000000000000000000000000000000602082015250565b7f4f776e61626c653a2063616c6c6572206973206e6f7420746865206f776e6572600082015250565b7f4552433732314d657461646174613a2055524920717565727920666f72206e6f60008201527f6e6578697374656e7420746f6b656e0000000000000000000000000000000000602082015250565b7f4552433732313a20617070726f76616c20746f2063757272656e74206f776e6560008201527f7200000000000000000000000000000000000000000000000000000000000000602082015250565b50565b7f4552433732313a207472616e736665722063616c6c6572206973206e6f74206f60008201527f776e6572206e6f7220617070726f766564000000000000000000000000000000602082015250565b7f455243373231456e756d657261626c653a20676c6f62616c20696e646578206f60008201527f7574206f6620626f756e64730000000000000000000000000000000000000000602082015250565b61435381613aaf565b811461435e57600080fd5b50565b61436a81613ac1565b811461437557600080fd5b50565b61438181613acd565b811461438c57600080fd5b50565b61439881613b19565b81146143a357600080fd5b5056fea2646970667358221220ff3d0a4c9f615e26dac30552a939878424b890fe243352ab1fcd4208c08738bb64736f6c63430008040033",
  "linkReferences": {},
  "deployedLinkReferences": {}
}